{
  "contractName": "Crowdfunding",
  "abi": [
    {
      "constant": true,
      "inputs": [],
      "name": "endTime",
      "outputs": [
        {
          "name": "",
          "type": "uint256"
        }
      ],
      "payable": false,
      "stateMutability": "view",
      "type": "function"
    },
    {
      "constant": true,
      "inputs": [],
      "name": "closed",
      "outputs": [
        {
          "name": "",
          "type": "bool"
        }
      ],
      "payable": false,
      "stateMutability": "view",
      "type": "function"
    },
    {
      "constant": true,
      "inputs": [],
      "name": "price",
      "outputs": [
        {
          "name": "",
          "type": "uint256"
        }
      ],
      "payable": false,
      "stateMutability": "view",
      "type": "function"
    },
    {
      "constant": true,
      "inputs": [],
      "name": "author",
      "outputs": [
        {
          "name": "",
          "type": "address"
        }
      ],
      "payable": false,
      "stateMutability": "view",
      "type": "function"
    },
    {
      "constant": true,
      "inputs": [
        {
          "name": "",
          "type": "address"
        }
      ],
      "name": "joined",
      "outputs": [
        {
          "name": "",
          "type": "uint256"
        }
      ],
      "payable": false,
      "stateMutability": "view",
      "type": "function"
    },
    {
      "inputs": [],
      "payable": false,
      "stateMutability": "nonpayable",
      "type": "constructor"
    },
    {
      "payable": true,
      "stateMutability": "payable",
      "type": "fallback"
    },
    {
      "anonymous": false,
      "inputs": [
        {
          "indexed": true,
          "name": "user",
          "type": "address"
        },
        {
          "indexed": false,
          "name": "price",
          "type": "uint256"
        }
      ],
      "name": "Join",
      "type": "event"
    },
    {
      "constant": false,
      "inputs": [],
      "name": "withdrawFund",
      "outputs": [],
      "payable": false,
      "stateMutability": "nonpayable",
      "type": "function"
    },
    {
      "constant": false,
      "inputs": [],
      "name": "withdraw",
      "outputs": [],
      "payable": false,
      "stateMutability": "nonpayable",
      "type": "function"
    }
  ],
  "bytecode": "0x608060405266470de4df8200006003556000600460006101000a81548160ff02191690831515021790555034801561003657600080fd5b50336000806101000a81548173ffffffffffffffffffffffffffffffffffffffff021916908373ffffffffffffffffffffffffffffffffffffffff16021790555062278d0042016002819055506108ff806100926000396000f3fe6080604052600436106100705760003560e01c8063a035b1fe1161004e578063a035b1fe1461033a578063a6c3e6b914610365578063e07fa3c1146103bc578063f887d019146103d357610070565b80633197cbb6146102c95780633ccfd60b146102f4578063597e1fb51461030b575b6002544210801561008e5750600460009054906101000a900460ff16155b610100576040517f08c379a000000000000000000000000000000000000000000000000000000000815260040180806020018281038252600f8152602001807fe4bc97e7adb9e5b7b2e7bb93e69d9f000000000000000000000000000000000081525060200191505060405180910390fd5b6000600160003373ffffffffffffffffffffffffffffffffffffffff1673ffffffffffffffffffffffffffffffffffffffff16815260200190815260200160002054146101b5576040517f08c379a00000000000000000000000000000000000000000000000000000000081526004018080602001828103825260188152602001807fe4bda0e5b7b2e7bb8fe58f82e4b88ee8bf87e4bc97e7adb9000000000000000081525060200191505060405180910390fd5b60035434101561022d576040517f08c379a000000000000000000000000000000000000000000000000000000000815260040180806020018281038252600f8152602001807fe587bae4bbb7e5a4aae4bd8ee4ba86000000000000000000000000000000000081525060200191505060405180910390fd5b34600160003373ffffffffffffffffffffffffffffffffffffffff1673ffffffffffffffffffffffffffffffffffffffff16815260200190815260200160002081905550610279610438565b3373ffffffffffffffffffffffffffffffffffffffff167fb4e09949657f21548b58afe74e7b86cd2295da5ff1598ae1e5faecb1cf19ca95346040518082815260200191505060405180910390a2005b3480156102d557600080fd5b506102de610481565b6040518082815260200191505060405180910390f35b34801561030057600080fd5b50610309610487565b005b34801561031757600080fd5b50610320610663565b604051808215151515815260200191505060405180910390f35b34801561034657600080fd5b5061034f610676565b6040518082815260200191505060405180910390f35b34801561037157600080fd5b5061037a61067c565b604051808273ffffffffffffffffffffffffffffffffffffffff1673ffffffffffffffffffffffffffffffffffffffff16815260200191505060405180910390f35b3480156103c857600080fd5b506103d16106a1565b005b3480156103df57600080fd5b50610422600480360360208110156103f657600080fd5b81019080803573ffffffffffffffffffffffffffffffffffffffff169060200190929190505050610873565b6040518082815260200191505060405180910390f35b600066071afd498d0000670de0b6b3a76400003073ffffffffffffffffffffffffffffffffffffffff16318161046a57fe5b040290508066470de4df8200000160038190555050565b60025481565b60025442116104fe576040517f08c379a000000000000000000000000000000000000000000000000000000000815260040180806020018281038252601b8152602001807fe8bf98e69caae588b0e4bc97e7adb9e7bb93e69d9fe697b6e997b4000000000081525060200191505060405180910390fd5b600460009054906101000a900460ff1615610564576040517f08c379a00000000000000000000000000000000000000000000000000000000081526004018080602001828103825260248152602001806108b06024913960400191505060405180910390fd5b3073ffffffffffffffffffffffffffffffffffffffff1631678ac7230489e80000116105db576040517f08c379a000000000000000000000000000000000000000000000000000000000815260040180806020018281038252602481526020018061088c6024913960400191505060405180910390fd5b3373ffffffffffffffffffffffffffffffffffffffff166108fc600160003373ffffffffffffffffffffffffffffffffffffffff1673ffffffffffffffffffffffffffffffffffffffff168152602001908152602001600020549081150290604051600060405180830381858888f19350505050158015610660573d6000803e3d6000fd5b50565b600460009054906101000a900460ff1681565b60035481565b6000809054906101000a900473ffffffffffffffffffffffffffffffffffffffff1681565b6000809054906101000a900473ffffffffffffffffffffffffffffffffffffffff1673ffffffffffffffffffffffffffffffffffffffff163373ffffffffffffffffffffffffffffffffffffffff1614610763576040517f08c379a000000000000000000000000000000000000000000000000000000000815260040180806020018281038252600f8152602001807fe4bda0e4b88de698afe4bd9ce88085000000000000000000000000000000000081525060200191505060405180910390fd5b678ac7230489e800003073ffffffffffffffffffffffffffffffffffffffff163110156107f8576040517f08c379a00000000000000000000000000000000000000000000000000000000081526004018080602001828103825260158152602001807fe69caae8bebee588b0e4bc97e7adb9e79baee6a087000000000000000000000081525060200191505060405180910390fd5b6001600460006101000a81548160ff0219169083151502179055503373ffffffffffffffffffffffffffffffffffffffff166108fc3073ffffffffffffffffffffffffffffffffffffffff16319081150290604051600060405180830381858888f19350505050158015610870573d6000803e3d6000fd5b50565b6001602052806000526040600020600091509050548156fee4bc97e7adb9e8bebee6a087efbc8ce4bda0e6b2a1e6b395e68f90e58f96e8b584e98791e4bc97e7adb9e8bebee6a087efbc8ce4bc97e7adb9e8b584e98791e5b7b2e68f90e58f96a165627a7a72305820c043dc51fe0e6894c1dd16780ff116fd1cfbfe5c91a1a024e76c47aa16efe91b0029",
  "source": "pragma solidity >=0.4.21 <0.7.0;\n\n\ncontract Crowdfunding {\n    // 创作者\n    address public author;\n\n    // 参与金额\n    mapping(address => uint) public joined;\n\n    // 众筹目标\n    uint constant Target = 10 ether;\n\n    // 众筹截止时间\n    uint public endTime;\n\n    // 记录当前众筹价格\n    uint public price  = 0.02 ether ;\n\n    // 作者提取资金之后，关闭众筹\n    bool public closed = false;\n\n    // address[] joinAccouts;\n    event Join(address indexed user, uint price);\n\n    // 部署合约时调用，初始化作者以及众筹结束时间\n    constructor() public {\n        author = msg.sender;\n        endTime = now + 30 days;\n    }\n\n    // 更新价格，这是一个内部函数\n    function updatePrice() internal {\n        uint rise = address(this).balance / 1 ether * 0.002 ether;\n        price = 0.02 ether + rise;\n    }\n\n    // 用户向合约转账时 触发的回调函数\n    function () external payable {\n        require(now < endTime && !closed  , \"众筹已结束\");\n        require(joined[msg.sender] == 0 , \"你已经参与过众筹\");\n\n        require (msg.value >= price, \"出价太低了\");\n        joined[msg.sender] = msg.value;\n\n        updatePrice();\n\n        emit Join(msg.sender, msg.value);     //  48820  gas\n        // joinAccouts.push(msg.sender);   // 88246  gas\n    }\n\n    // 作者提取资金\n    function withdrawFund() external {\n        require(msg.sender == author, \"你不是作者\");\n        require(address(this).balance >= Target, \"未达到众筹目标\");\n        closed = true;\n        msg.sender.transfer(address(this).balance);\n    }\n\n    // 读者赎回资金\n    function withdraw() external {\n        require(now > endTime, \"还未到众筹结束时间\");\n        require(!closed, \"众筹达标，众筹资金已提取\");\n        require(Target > address(this).balance, \"众筹达标，你没法提取资金\");\n\n        msg.sender.transfer(joined[msg.sender]);\n    }\n\n}\n",
  "sourcePath": "C:/Users/DELL/crowdfunding/contracts/Crowdfunding.sol",
  "compiler": {
    "name": "solc",
    "version": "0.5.8+commit.23d335f2.Emscripten.clang"
  },
  "schemaVersion": "3.0.16",
  "updatedAt": "2019-12-25T10:05:51.960Z",
  "devdoc": {
    "methods": {}
  },
  "userdoc": {
    "methods": {}
  }
}